:020000040800F2
:100000000050002051300008792E00087F2E000893
:10001000852E00088B2E0008912E0008000000009D
:10002000000000000000000000000000972E000803
:10003000A32E000800000000AF2E0008BB2E000811
:10004000993000089930000899300008993000086C
:10005000993000089930000899300008993000085C
:10006000993000089930000899300008993000084C
:10007000993000089930000899300008993000083C
:10008000993000089930000899300008993000082C
:10009000993000089930000899300008993000081C
:1000A000993000089930000899300008993000080C
:1000B00099300008C92E0008DD2E0008993000088C
:1000C00099300008993000089930000899300008EC
:1000D00099300008F12E0008993000089930000886
:1000E000993000089930000899300008000000009D
:1000F0000000000000000000000000000000000000
:0C01000000000000000000005FF808F1A3
:1001100010B5054C237833B9044B13B10448AFF341
:1001200000800123237010BD90000020000000001B
:100130007C81000808B5034B1BB103490348AFF3AA
:10014000008008BD00000000940000207C810008B1
:1001500081F0004102E000BF83F0004330B54FEA78
:1001600041044FEA430594EA050F08BF90EA020FE5
:100170001FBF54EA000C55EA020C7FEA645C7FEA78
:10018000655C00F0E2804FEA5454D4EB5555B8BF9B
:100190006D420CDD2C4480EA020281EA030382EA0C
:1001A000000083EA010180EA020281EA0303362D9E
:1001B00088BF30BD11F0004F4FEA01314FF4801C71
:1001C0004CEA113102D0404261EB410113F0004F83
:1001D0004FEA03334CEA133302D0524263EB43033A
:1001E00094EA050F00F0A780A4F10104D5F1200ED8
:1001F0000DDB02FA0EFC22FA05F2801841F1000133
:1002000003FA0EF2801843FA05F359410EE0A5F106
:1002100020050EF1200E012A03FA0EFC28BF4CF037
:10022000020C43FA05F3C01851EBE37101F00045ED
:1002300007D54FF0000EDCF1000C7EEB00006EEBFA
:100240000101B1F5801F1BD3B1F5001F0CD3490884
:100250005FEA30004FEA3C0C04F101044FEA4452DB
:1002600012F5800F80F09A80BCF1004F08BF5FEA62
:10027000500C50F1000041EB045141EA050130BD42
:100280005FEA4C0C404141EB0101013C28BFB1F554
:10029000801FE9D291F0000F04BF01460020B1FA9F
:1002A00081F308BF2033A3F10B03B3F120020CDA72
:1002B0000C3208DD02F1140CC2F10C0201FA0CF050
:1002C00021FA02F10CE002F11402D8BFC2F1200CB5
:1002D00001FA02F120FA0CFCDCBF41EA0C0190406B
:1002E000E41AA2BF01EB0451294330BD6FEA0404B4
:1002F0001F3C1CDA0C340EDC04F11404C4F120029F
:1003000020FA04F001FA02F340EA030021FA04F3B0
:1003100045EA030130BDC4F10C04C4F1200220FA07
:1003200002F001FA04F340EA0300294630BD21FA45
:1003300004F0294630BD94F0000F83F4801306BF0B
:1003400081F480110134013D4EE77FEA645C18BFFF
:100350007FEA655C29D094EA050F08BF90EA020F96
:1003600005D054EA000C04BF1946104630BD91EA8E
:10037000030F1EBF0021002030BD5FEA545C05D191
:100380004000494128BF41F0004130BD14F58004D0
:100390003CBF01F5801130BD01F0004545F0FE4144
:1003A00041F470014FF0000030BD7FEA645C1ABF79
:1003B000194610467FEA655C1CBF0B46024650EAB0
:1003C000013406BF52EA033591EA030F41F40021DC
:1003D00030BD00BF90F0000F04BF0021704730B562
:1003E0004FF4806404F132044FF000054FF0000137
:1003F00050E700BF90F0000F04BF0021704730B5F8
:100400004FF4806404F1320410F0004548BF4042CC
:100410004FF000013EE700BF42004FEAE2014FEA21
:1004200031014FEA02701FBF12F07F4393F07F4FFC
:1004300081F06051704732F07F4208BF704793F0FF
:100440007F4F04BF41F40021704730B54FF4607412
:1004500001F0004521F000411CE700BF50EA010215
:1004600008BF704730B54FF000050AE050EA0102BE
:1004700008BF704730B511F0004502D5404261EB2E
:1004800041014FF4806404F132045FEA915C3FF46F
:10049000D8AE4FF003025FEADC0C18BF03325FEA0C
:1004A000DC0C18BF033202EBDC02C2F1200300FABD
:1004B00003FC20FA02F001FA03FE40EA0E0021FAE2
:1004C00002F11444BDE600BF70B54FF0FF0C4CF4D0
:1004D000E06C1CEA11541DBF1CEA135594EA0C0F82
:1004E00095EA0C0F00F0DEF82C4481EA030621EABD
:1004F0004C5123EA4C5350EA013518BF52EA0335F8
:1005000041F4801143F4801338D0A0FB02CE4FF0A9
:100510000005E1FB02E506F00042E0FB03E54FF0D9
:100520000006E1FB03569CF0000F18BF4EF0010ED1
:10053000A4F1FF04B6F5007F64F5407404D25FEACD
:100540004E0E6D4146EB060642EAC62141EA555180
:100550004FEAC52040EA5E504FEACE2EB4F1FD0CC2
:1005600088BFBCF5E06F1ED8BEF1004F08BF5FEA40
:10057000500E50F1000041EB045170BD06F00046F2
:1005800046EA010140EA020081EA0301B4EB5C049F
:10059000C2BFD4EB0C0541EA045170BD41F4801197
:1005A0004FF0000E013C00F3AB8014F1360FDEBFBC
:1005B000002001F0004170BDC4F10004203C35DA98
:1005C0000C341BDC04F11404C4F1200500FA05F31B
:1005D00020FA04F001FA05F240EA020001F00042BC
:1005E00021F0004110EBD37021FA04F642EB060132
:1005F0005EEA430E08BF20EAD37070BDC4F10C045C
:10060000C4F1200500FA04F320FA05F001FA04F21F
:1006100040EA020001F0004110EBD37041F100010B
:100620005EEA430E08BF20EAD37070BDC4F1200516
:1006300000FA05F24EEA020E20FA04F301FA05F27E
:1006400043EA020321FA04F001F0004121FA04F226
:1006500020EA020000EBD3705EEA430E08BF20EAF6
:10066000D37070BD94F0000F0FD101F00046400030
:1006700041EB010111F4801F08BF013CF7D041EAB2
:10068000060195F0000F18BF704703F000465200B6
:1006900043EB030313F4801F08BF013DF7D043EA87
:1006A0000603704794EA0C0F0CEA135518BF95EA3D
:1006B0000C0F0CD050EA410618BF52EA4306D1D1C4
:1006C00081EA030101F000414FF0000070BD50EAE3
:1006D000410606BF1046194652EA430619D094EA6D
:1006E0000C0F02D150EA013613D195EA0C0F05D157
:1006F00052EA03361CBF104619460AD181EA0301AB
:1007000001F0004141F0FE4141F470014FF0000062
:1007100070BD41F0FE4141F4780170BD70B54FF0FD
:10072000FF0C4CF4E06C1CEA11541DBF1CEA13557D
:1007300094EA0C0F95EA0C0F00F0A7F8A4EB05045F
:1007400081EA030E52EA03354FEA013100F0888056
:100750004FEA03334FF0805545EA131343EA12631F
:100760004FEA022245EA111545EA10654FEA0026D4
:100770000EF000419D4208BF964244F1FD0404F58D
:10078000407402D25B084FEA3202B61A65EB0305E9
:100790005B084FEA32024FF480104FF4002CB6EBA6
:1007A000020E75EB030E22BFB61A754640EA0C0026
:1007B0005B084FEA3202B6EB020E75EB030E22BF66
:1007C000B61A754640EA5C005B084FEA3202B6EBA7
:1007D000020E75EB030E22BFB61A754640EA9C0066
:1007E0005B084FEA3202B6EB020E75EB030E22BF36
:1007F000B61A754640EADC0055EA060E18D04FEAF4
:10080000051545EA16754FEA06164FEAC30343EA93
:1008100052734FEAC2025FEA1C1CC0D111F4801F60
:100820000BD141EA00014FF000004FF0004CB6E759
:1008300011F4801F04BF01430020B4F1FD0C88BFF8
:10084000BCF5E06F3FF6AFAEB5EB030C04BFB6EB03
:10085000020C5FEA500C50F1000041EB045170BDF6
:100860000EF0004E4EEA113114EB5C04C2BFD4EB23
:100870000C0541EA045170BD41F480114FF0000EA7
:10088000013C90E645EA060E8DE60CEA135594EA23
:100890000C0F08BF95EA0C0F3FF43BAF94EA0C0F26
:1008A0000AD150EA01347FF434AF95EA0C0F7FF49B
:1008B00025AF104619462CE795EA0C0F06D152EAEF
:1008C00003353FF4FDAE1046194622E750EA4106D3
:1008D00018BF52EA43067FF4C5AE50EA41047FF4E4
:1008E0000DAF52EA43057FF4EBAE12E74FF0FF3C49
:1008F00006E000BF4FF0010C02E000BF4FF0010C1A
:100900004DF804CD4FEA410C7FEA6C5C4FEA430C92
:1009100018BF7FEA6C5C1BD001B050EA410C0CBFE1
:1009200052EA430C91EA030F02BF90EA020F002043
:10093000704710F1000F91EA030F58BF994208BFAA
:1009400090422CBFD8176FEAE37040F00100704767
:100950004FEA410C7FEA6C5C02D150EA013C07D1BE
:100960004FEA430C7FEA6C5CD6D152EA033CD3D009
:100970005DF8040B704700BF8446104662468C4603
:100980001946634600E000BF01B5FFF7B7FF002836
:1009900048BF10F1000F01BD4DF808EDFFF7F4FF5F
:1009A0000CBF012000205DF808FB00BF4DF808EDEA
:1009B000FFF7EAFF34BF012000205DF808FB00BF0D
:1009C0004DF808EDFFF7E0FF94BF012000205DF82F
:1009D00008FB00BF4DF808EDFFF7CEFF94BF0120E4
:1009E00000205DF808FB00BF4DF808EDFFF7C4FFDD
:1009F00034BF012000205DF808FB00BF4A0011D27F
:100A000012F5001211D20DD56FF47873B3EB625268
:100A10000ED44FEAC12343F0004343EA505323FA74
:100A200002F070474FF00000704750EA013002D1E9
:100A30004FF0FF3070474FF0000070474FEA41021F
:100A4000B2F1E04324BFB3F5001CDCF1FE5C0DD92C
:100A500001F0004C4FEAC0024CEA5070B2F1004F76
:100A600040EB830008BF20F00100704711F0804F79
:100A700021D113F13872BCBF01F00040704741F43E
:100A800080114FEA5252C2F11802C2F1200C10FA42
:100A90000CF320FA02F018BF40F001004FEAC12326
:100AA0004FEAD32303FA0CFC40EA0C0023FA02F3CA
:100AB0004FEA4303CCE77FEA625307D150EA0133A0
:100AC0001EBF4FF0FE4040F44000704701F0004070
:100AD00040F0FE4040F40000704700BF80F000404E
:100AE00002E000BF81F0004142001FBF5FEA410306
:100AF00092EA030F7FEA226C7FEA236C6AD04FEA06
:100B00001262D2EB1363C1BFD2184140484041404A
:100B1000B8BF5B42192B88BF704710F0004F40F4FC
:100B2000000020F07F4018BF404211F0004F41F418
:100B3000000121F07F4118BF494292EA030F3FD0E4
:100B4000A2F1010241FA03FC10EB0C00C3F12003F7
:100B500001FA03F100F0004302D5494260EB400086
:100B6000B0F5000F13D3B0F1807F06D340084FEAF1
:100B7000310102F10102FE2A51D2B1F1004F40EBE6
:100B8000C25008BF20F0010040EA0300704749004E
:100B900040EB0000013A28BFB0F5000FEDD2B0FAEB
:100BA00080FCACF1080CB2EB0C0200FA0CF0AABF0E
:100BB00000EBC25052421843BCBFD04018437047AC
:100BC00092F0000F81F4000106BF80F400000132B2
:100BD000013BB5E74FEA41037FEA226C18BF7FEA89
:100BE000236C21D092EA030F04D092F0000F08BFCB
:100BF0000846704790EA010F1CBF0020704712F0B2
:100C00007F4F04D1400028BF40F00040704712F1F0
:100C100000723CBF00F50000704700F0004343F055
:100C2000FE4040F4000070477FEA226216BF08468B
:100C30007FEA23630146420206BF5FEA412390EA4E
:100C4000010F40F4800070474FF0000304E000BF44
:100C500010F0004348BF40425FEA000C08BF7047F5
:100C600043F0964301464FF000001CE050EA0102B9
:100C700008BF70474FF000030AE000BF50EA0102CE
:100C800008BF704711F0004302D5404261EB4101BB
:100C90005FEA010C02BF84460146002043F0B643E0
:100CA00008BFA3F18053A3F50003BCFA8CF2083A05
:100CB000A3EBC25310DB01FA02FC634400FA02FC0E
:100CC000C2F12002BCF1004F20FA02F243EB020015
:100CD00008BF20F00100704702F1200201FA02FC77
:100CE000C2F1200250EA4C0021FA02F243EB02006A
:100CF00008BF20EADC7070474FF0FF0C1CEAD052AE
:100D00001EBF1CEAD15392EA0C0F93EA0C0F6FD06E
:100D10001A4480EA010C400218BF5FEA41211ED04C
:100D20004FF0006343EA501043EA5111A0FB013138
:100D30000CF00040B1F5000F3EBF490041EAD3710D
:100D40005B0040EA010062F17F02FD2A1DD8B3F189
:100D5000004F40EBC25008BF20F00100704790F0F8
:100D6000000F0CF0004C08BF49024CEA502040EA4A
:100D700051207F3AC2BFD2F1FF0340EAC250704710
:100D800040F400004FF00003013A5DDC12F1190F4E
:100D9000DCBF00F000407047C2F10002410021FAC0
:100DA00002F1C2F1200200FA02FC5FEA310040F1D8
:100DB000000053EA4C0308BF20EADC70704792F051
:100DC000000F00F0004C02BF400010F4000F013A89
:100DD000F9D040EA0C0093F0000F01F0004C02BF84
:100DE000490011F4000F013BF9D041EA0C018FE7F3
:100DF0000CEAD15392EA0C0F18BF93EA0C0F0AD0F9
:100E000030F0004C18BF31F0004CD8D180EA01001E
:100E100000F00040704790F0000F17BF90F0004FB7
:100E2000084691F0000F91F0004F14D092EA0C0F99
:100E300001D142020FD193EA0C0F03D14B0218BF2C
:100E4000084608D180EA010000F0004040F0FE4072
:100E500040F40000704740F0FE4040F4400070470E
:100E60004FF0FF0C1CEAD0521EBF1CEAD15392EA8D
:100E70000C0F93EA0C0F69D0A2EB030280EA010C7D
:100E800049024FEA402037D04FF0805343EA111116
:100E900043EA10130CF000408B4238BF5B0042F174
:100EA0007D024FF4000C8B4224BF5B1A40EA0C0019
:100EB000B3EB510F24BFA3EB510340EA5C00B3EB4B
:100EC000910F24BFA3EB910340EA9C00B3EBD10F39
:100ED00024BFA3EBD10340EADC001B0118BF5FEA8B
:100EE0001C1CE0D1FD2A3FF650AF8B4240EBC250B4
:100EF00008BF20F0010070470CF0004C4CEA502075
:100F00007F32C2BFD2F1FF0340EAC250704740F4C3
:100F100000004FF00003013A37E792F0000F00F0B5
:100F2000004C02BF400010F4000F013AF9D040EA33
:100F30000C0093F0000F01F0004C02BF490011F4C7
:100F4000000F013BF9D041EA0C0195E70CEAD153BF
:100F500092EA0C0F08D142027FF47DAF93EA0C0FA6
:100F60007FF470AF084676E793EA0C0F04D14B028A
:100F70003FF44CAF08466EE730F0004C18BF31F03C
:100F8000004CCAD130F000427FF45CAF31F0004336
:100F90007FF43CAF5FE700BF4FF0FF3C06E000BFCF
:100FA0004FF0010C02E000BF4FF0010C4DF804CDF2
:100FB0004FEA40024FEA41037FEA226C18BF7FEA02
:100FC000236C11D001B052EA530C18BF90EA010F04
:100FD00058BFB2EB030088BFC81738BF6FEAE17093
:100FE00018BF40F0010070477FEA226C02D15FEA2F
:100FF000402C05D17FEA236CE4D15FEA412CE1D09B
:101000005DF8040B704700BF844608466146FFE761
:101010000FB5FFF7C9FF002848BF10F1000F0FBD43
:101020004DF808EDFFF7F4FF0CBF012000205DF83C
:1010300008FB00BF4DF808EDFFF7EAFF34BF0120C1
:1010400000205DF808FB00BF4DF808EDFFF7E0FF5A
:1010500094BF012000205DF808FB00BF4DF808EDAB
:10106000FFF7D2FF94BF012000205DF808FB00BF0E
:101070004DF808EDFFF7C8FF34BF012000205DF8F0
:1010800008FB00BF4FEA4002B2F1FE4F0FD34FF012
:101090009E03B3EB12620DD94FEA002343F00043E5
:1010A00010F0004F23FA02F018BF404270474FF093
:1010B0000000704712F1610F01D1420205D110F01A
:1010C000004008BF6FF0004070474FF000007047CD
:1010D0002DE9F0438BB006AFF8607A603B600B46B9
:1010E000FB72FB687A689A64FB68BA6BDA643B68E7
:1010F0009AB2FB68A3F85020FB683A8EA3F8402010
:10110000FB68BA8EA3F84220FB68002283F84420D3
:10111000FB68FA7A83F83820F9684FF00002284B10
:10112000C1E90223F96822A3D3E90023C1E904231A
:10113000FB6800221A66FB68224A9A61F9681EA3BE
:10114000D3E90023C1E90823F9684FF000021E4BE0
:10115000C1E90A23F9684FF000024FF00003C1E92A
:101160000C23FB684FF000025A66FB68174A9A6628
:10117000FB6803F17006FB68D3E90845FB68D3E917
:101180000A23F968D1E90C014FF00008DFF840901C
:10119000CDE90489CDE90201CDE9002322462B46A1
:1011A000304600F07DF900BF1437BD46BDE8F0833E
:1011B0000AD7A3703D0AB73F666666666666044056
:1011C000000049400000084200000C400000C842F6
:1011D0000000594080B582B000AF78607B68B3F8FA
:1011E000403000221946074802F022FB7B68B3F822
:1011F000423001221946034802F01AFB00BF0837AB
:10120000BD4680BD000C014080B582B000AF786063
:101210007B68B3F8403000221946074802F008FB0B
:101220007B68B3F8423000221946034802F000FB05
:1012300000BF0837BD4680BD000C014080B483B0BC
:1012400000AF78600B467B807B88DAB27B6883F8DE
:1012500044207B68B3F85030002B02D0042B08D018
:101260000FE07B6893F844207B689B6C1B685A6393
:1012700007E07B6893F844207B689B6C1B689A634B
:1012800000BF00BF0C37BD4680BC704700000000A7
:1012900090B58DB004AFF860C7E90023F868FFF798
:1012A00099FFF86800F058F8F861FB6803F17004E2
:1012B000F869FFF7B1F802460B4615A1D1E9000124
:1012C000CDE90201CDE90023D7E90023204600F053
:1012D00033F9C7E90401D7E9040100F01DF803461A
:1012E0001846FFF799F802460B46C7E90423D7E9E9
:1012F0000401FFF783FB03469BB21946F868FFF72A
:101300009DFF00BF2437BD4690BD00BFAFF30080F6
:101310009A9999999999B93F80B584B000AFC7E976
:1013200000010BA3D3E90023D7E90001FFF7CCF8B4
:1013300002460B46C7E90223D7E90201FFF77EFB0D
:10134000034618461037BD4680BD00BFAFF300808E
:10135000077550077550E73FB0B584B000AF7860AF
:1013600001F0F4FE03461846FFF76EFC0346FB60EF
:101370007B685B6E1946F868FFF7B4FB03461A46B4
:101380007B689B6E19461046FFF768FE0346002BEC
:1013900030D07B68FA685A667B681A6E13469B00E9
:1013A00013445B001846FFF725F804460D467B689A
:1013B0009B691846FFF730F87B68D3E90223FFF7F3
:1013C00083F802460B464FF000000D49FFF7A6F9DF
:1013D00002460B4620462946FFF776F802460B46A2
:1013E00010461946FFF72AFB02467B685A657B6860
:1013F00000221A667B685B6D18461037BD46B0BD8B
:1014000000004E4080B584B004AF134B02934FF4FC
:10141000005301934FF48053009300230F4A02219D
:101420000F48FFF755FE0F4B02934FF40043019313
:101430004FF4804300930423084A01210A48FFF730
:1014400047FE0A4B00939B235F22F021084800F0DF
:10145000A8F900BFBD4680BD640300201C03002026
:1014600068010020AC030020B0000020D40200205E
:101470002002002080B500AF00210748FFF7DEFE04
:1014800000210648FFF7DAFE0348FFF7BDFE0348D8
:10149000FFF7BAFE00BF80BDB00000206801002049
:1014A00080B584B000AFF860C7E90023F9684FF059
:1014B00000024FF00003C1E90023F9684FF0000279
:1014C0004FF00003C1E90223FB684FF000021A61EC
:1014D000FB684FF000025A61FB684FF000029A610E
:1014E000D7E90001FFF7AAFA0246FB68DA61D7E9FB
:1014F0000601FFF7A3FA0246FB681A62D7E9080162
:10150000FFF79CFA0246FB685A62D7E90A01FFF727
:1015100095FA0246FB689A62FB684FF000021A6374
:10152000FB684FF00002DA62FB684FF000025A637A
:1015300000BF1037BD4680BD2DE9B04384B000AF79
:10154000F860C7E9002301F001FE03461846FFF7E3
:101550007BFB0246FB68DA62F968D7E90C23C1E934
:101560001023D7E90A01FFF769FA0246FB685A63BC
:10157000FB685B6B1846FEF74FFF02460B46D7E948
:101580000001FEF7E9FD02460B4610461946FFF73B
:1015900055FA0246FB681A61FB68D3E90245FB680D
:1015A000DB691846FEF738FF80468946FB685B6AB0
:1015B0001846FEF731FFFB68D3E91023FFF7AEF8BA
:1015C00002460B4640464946FEF7C8FD02460B461A
:1015D00090469946FB681B691846FEF71DFF0246B8
:1015E0000B4640464946FEF76FFF02460B46204633
:1015F0002946FEF7B3FD02460B4690469946FB6826
:10160000DB6983F000431846FEF706FF04460D46EB
:10161000FB681B6A1846FEF7FFFEFB68D3E9102340
:10162000FEF752FF02460B4620462946FEF796FD7E
:1016300002460B4614461D46FB685B6A194618466F
:10164000FFF752FA03461846FEF7E6FEFB68D3E9B9
:101650001023FFF763F802460B4620462946FEF7A3
:101660007BFD02460B4614461D46FB685B69184627
:10167000FEF7D2FE02460B4620462946FEF724FF1F
:1016800002460B4640464946FEF768FD02460B46B9
:1016900014461D46FB685B6A1846FEF7BDFEFB68F4
:1016A000D3E91023FFF73AF802460B4690469946D5
:1016B000FB689B691846FEF7AFFE02460B464046A4
:1016C0004946FEF701FF02460B4620462946FEF733
:1016D00045FD02460B46F968C1E90023FB68D3E9E2
:1016E0000023F968C1E90223FB685A69FB689A6123
:1016F000FB681A69FB685A61FB68D3E9000114A30F
:10170000D3E90023FFF770F90346002B05D0F968F1
:101710000FA3D3E90023C1E90023FB68D3E900014B
:101720004FF000020C4BFFF741F90346002B05D0A8
:10173000F9684FF00002084BC1E90023FB68D3E9C8
:101740000023104619461037BD46BDE8B08300BFE0
:101750000000000000E0754000003E4080B483B00F
:1017600000AF786079684FF000024FF00003C1E9E4
:10177000002379684FF000024FF00003C1E9022313
:101780007B684FF000021A617B684FF000025A61DB
:101790007B684FF000029A6100BF0C37BD4680BCE9
:1017A000704780B483B000AF7860084611461A468F
:1017B0000346FB700B46BB7013467B707B68FA7860
:1017C0001A707B68BA785A707B687A789A707B68EE
:1017D0003A695A6000BF0C37BD4680BC70470000B4
:1017E00090B589B000AFF860B9607A60F968B86800
:1017F000FFF778F90346FB617868FFF729FA03469B
:101800001946F869FFF734FC0346002B05D07868C9
:10181000FFF71EFA0346FB6113E07B685B42184644
:10182000FFF716FA03461946F869FFF703FC03466B
:10183000002B06D07B685B421846FFF709FA034687
:10184000FB61194B1B781A46174B9B78D31A184625
:10185000FFF7FEF90346F9691846FFF74DFA03460C
:101860001C467868FFF7F4F9034619462046FFF74F
:10187000F7FA0346BB610C4B9B781846FFF7E8F973
:1018800003461946B869FFF72FF903467B6178696B
:10189000FFF7F8FB0246044B5B681B685A6300BF06
:1018A0002437BD4690BD00BF2002002080B58CB01B
:1018B00000AF786007F10C007B680A4A202105F030
:1018C00009FCF862FB6A002B07DDFB6A9AB207F19C
:1018D0000C010A23044804F00CFD7B6818463037DD
:1018E000BD4680BD94810008F403002080B483B01D
:1018F00000AF78607B68134A93420DD1124B134AB4
:101900001A60114B1B681A6E01321A660E4B1B6867
:10191000DA6D0132DA6510E07B680D4A93420CD132
:10192000094B0C4A1A60084B1B681A6E01321A6682
:10193000054B1B68DA6D0132DA6500BF0C37BD4616
:1019400080BC704764030020CC04002068010020A4
:10195000AC030020B000002080B500AF00F0DAFF3B
:101960000346002B00F007820449054805F044FBBC
:10197000BAE1044B4FF000021A6063E0200000203F
:1019800098810008A004002000F0C4FF0346002B4B
:101990004AD001F005F802469C4B1B6819461046D8
:1019A000FFF7A0F803461A46994B1A6000F0DEFFD5
:1019B0000246984B1B6819461046FFF793F80346FA
:1019C0001A46954B1A6001F005F80246934B1B68C6
:1019D00019461046FFF786F803461A46904B1A60E0
:1019E000904B1B688C4A126811461846FFF77CF82A
:1019F00003461A468B4B1A608B4B1B68844A12684D
:101A000011461846FFF770F803461A46864B1A60CF
:101A1000864B1B68824A126811461846FFF764F825
:101A200003461A46814B1A60012001F099FB804B56
:101A30001B684FF07E511846FFF756F803461A46CA
:101A40007B4B1A607A4B1B687A491846FFF7F2FA0B
:101A50000346002B98D1734B1B681846FFF712FB07
:101A600003461946744805F0C7FA6F4B1B681846C1
:101A7000FFF708FB03461946704805F0BDFA6B4BAB
:101A80001B681846FFF7FEFA034619466C4805F036
:101A9000B3FA644B1B686B491846FFF7E1F903463C
:101AA0001A465C4B1A60604B1B6866491846FFF784
:101AB000D7F903461A46554B1A605C4B1B686149BF
:101AC0001846FFF7CDF903461A46544B1A60514B9E
:101AD0001B681846FFF7D6FA034619465A4805F020
:101AE0008BFA4A4B1B681846FFF7CCFA0346194697
:101AF000564805F081FA494B1B681846FFF7C2FAB1
:101B000003461946524805F077FA434B1B681846BE
:101B1000FFF7B8FA034619464E4805F06DFA3C4BFC
:101B20001B681846FFF7AEFA034619464A4805F007
:101B300063FA3B4B1B681846FFF7A4FA03461946A5
:101B4000464805F059FA344B1B68324A1268114670
:101B50001846FEF7C7FF03461A46414B1A602C4B46
:101B60001B682A4A126811461846FEF7BBFF034657
:101B70001A463C4B1A602A4B1B68284A12681146C9
:101B80001846FEF7AFFF03461A46374B1A60344B30
:101B90001B681846FFF776FA03461946334805F0E6
:101BA0002BFA304B1B681846FFF76CFA03461946B0
:101BB0002F4805F021FA2C4B1B681846FFF762FAF4
:101BC000034619462B4805F017FA104B1B682A4AA2
:101BD000126811461846FEF787FF03461A46264B41
:101BE0001A60254B1B681846FFF74CFA0346194646
:101BF000224805F001FA074B1B68214A126811467A
:101C00001846FEF771FF03461A463BE0A804002081
:101C100088040020A40400208C040020AC040020D0
:101C20009004002094040020980400209C040020CC
:101C3000A00400200020FA44B4810008C8810008F4
:101C4000DC8100080000FA44F08100080C820008E2
:101C50002882000844820008508200085C82000844
:101C60000000002004000020080000206882000816
:101C70007882000888820008BC040020988200084E
:101C8000B0040020424B1A60424B1B68424A126863
:101C900011461846FEF728FF03461A463D4B1A60C8
:101CA0003E4B1B683E4A126811461846FEF71CFF61
:101CB00003461A46394B1A60354B1B68394A136084
:101CC000344B1B68344A1360344B1B68344A13602E
:101CD000354B4FF000021A60344B4FF000021A608F
:101CE000334B4FF000021A60324B1B681846FEF768
:101CF00093FB23A3D3E90023FEF776FE0346002BD4
:101D00007FF437AE2B4B1B681846FEF785FB1EA3EE
:101D1000D3E90023FEF74AFE0346002B7FF429AEE9
:101D20002549264805F068F9254B1B681846FEF73B
:101D300073FB02460B46234805F05EF9224B4FF039
:101D400000021A60214B1B781946214805F054F90E
:101D50001E4B1B7819461F4805F04EF91A4B1B689D
:101D60001846FEF759FB02460B461B4805F044F99E
:101D7000164B00221A7000BF80BD00BFAFF3008079
:101D80009A9999999999A93F9A9999999999A9BFD5
:101D9000A4040020A8040020B4040020AC04002007
:101DA000B8040020B004002094040020980400200F
:101DB0009C040020040000200C000020AC820008DD
:101DC000BC040020B4820008C00400208404002069
:101DD000C8820008D8820008E882000800000000DD
:101DE000B0B500AF504B1B684FF000011846FFF72D
:101DF00017F90346002B40F0898000F08BFD034665
:101E0000002B7BD000F0CCFD0346484A1360474BC3
:101E10001B68454A126811461846FEF763FE0346E2
:101E20001A46424B1A60424B1B681846FEF7F4FAFA
:101E300004460D463D4B1B681846FEF7EDFA36A3E7
:101E4000D3E90023FEF740FB02460B461046194635
:101E50004FF00002374BFEF737FB02460B46204699
:101E60002946FEF77BF902460B4610461946FEF757
:101E7000E5FD03462E4A13602D4B1B681846FEF7FE
:101E8000CBFA04460D462C4B1B681846FEF7C4FAE5
:101E900023A3D3E90023FEF75FF902460B46204651
:101EA0002946FEF783FD0346002B19D1204B1B6802
:101EB0001846FEF7B1FA04460D461F4B1B6818463C
:101EC000FEF7AAFA16A3D3E90023FEF747F9024664
:101ED0000B4620462946FEF787FD0346002B04D01B
:101EE000134B1B68124A136003E0134B1B68104A24
:101EF00013600F4B1B68104A136007E000F00AFDE7
:101F00000346002B02D10D4805F0DCF8084B1B6896
:101F10001846B0BDAFF30080713D0AD7A370CD3F26
:101F20009A9999999999E93FBC0400208804002066
:101F3000C40400200000D03FC8040020F88200083C
:101F4000B0B58EB000AF01F0A9F800F059F901F07A
:101F5000A5F800F025FC00F0F5F900F0F7FB00F023
:101F600093FA00F093F900F073FB00F01DFB00F012
:101F7000C3FB00F0B9F90021914803F05DF900219D
:101F8000904803F059F904218E4803F055F93C219B
:101F90008D4803F095FA3C218C4803F091FA4FF0FC
:101FA00000028B4BC7E906234FF000037B634FF021
:101FB00000037B614FF000033B634FF000024FF0E2
:101FC0000003C7E902234FF000024FF00003C7E906
:101FD0000A23002387F82730002387F82630FFF7ED
:101FE000BBFCFFF70FFA00F06FFC7A4B7A4A1A60DD
:101FF000784B1B6870331846FFF7B0FB754B764A79
:102000001A60744B1B6870331846FFF7A7FBFFF785
:10201000E7FE786001F09AF803461846FEF714FED2
:1020200003467B637868FFF72DF8034619466B4833
:1020300004F0E2FF386BFFF725F8034619466848BD
:1020400004F0DAFF97F82630032B00F2AF8097F800
:102050002730002B19D04FF00002624B6248FFF787
:1020600017F9D7E906235C48FFF712F93C22796893
:10207000386BFFF7B5FB396B7868FEF7EFFF034667
:10208000002B02D0002387F8273097F8273083F001
:102090000103DBB2002BBAD0D7E906235248FFF781
:1020A000F7F8D7E906234C48FFF7F2F84FF00002A3
:1020B0004E4BD7E90A01FEF779FC0346002B45D0C9
:1020C000454B1B6E1846FEF795F904460D46424BEC
:1020D000D3E9040138A3D3E90023FEF7F5F902465A
:1020E0000B4620462946FEF7EFF902460B461046FE
:1020F0001946394BD3E90223FEF710FB02460B4683
:10210000C7E90223D7E90223D7E90A01FEF726F837
:1021100002460B46C7E90A235A227968386BFFF753
:102120005FFB2D4B5B6D1846FEF7ACFF034619466F
:102130002F4804F061FF2C4B5B6D1846FEF7A2FFA1
:10214000034619462B4804F057FF60E7FFF792F962
:102150007B6B7B6109E0FFF78DF900F0F7FF034629
:102160001846FEF771FD03467B637969786BFEF7CD
:10217000B9FC034620491846FEF75CFF0346002BD6
:10218000E9D1012387F8273097F82630013387F803
:1021900026304FF000024FF00003C7E90A23174929
:1021A0007868FEF7A1FC03463B6330E7FFF762F96E
:1021B0002DE700BFAFF30080A7E8482EFF210940BC
:1021C000D40200201C03002064030020AC03002084
:1021D00000005940CC040020B00000200483000817
:1021E00010830008008056406801002000805140A4
:1021F000248300083883000800409C450000024307
:1022000080B590B000AF07F11803282200211846CE
:1022100005F06CF83B1D00221A605A609A60DA6083
:102220001A610123BB614FF48033FB6100233B62E1
:102230000123BB6202237B634FF48033BB634FF403
:10224000E013FB6307F11803184602F03DFB034659
:10225000002B01D000F02EFB0F237B600223BB601C
:102260000023FB604FF4A0633B6100237B613B1DB7
:102270000221184602F0AAFD0346002B01D000F00F
:1022800019FB00BF4037BD4680BD000080B500AFE0
:10229000124B134A1A60114B124A5A600F4B00221C
:1022A0009A600E4B0022DA600C4B4FF480421A61A8
:1022B0000A4B00225A61094B00229A61074B002207
:1022C000DA61064B00221A62044801F0C9FA03469B
:1022D000002B01D000F0EEFA00BF80BD2C020020E0
:1022E00000540040A086010080B500AF124B134A95
:1022F0001A60114B124A5A600F4B00229A600E4B23
:102300000022DA600C4B4FF480421A610A4B002223
:102310005A61094B00229A61074B0022DA61064B91
:1023200000221A62044801F09BFA0346002B01D0F8
:1023300000F0C0FA00BF80BD8002002000580040BD
:10234000A086010080B596B000AF07F148030022D7
:102350001A605A609A60DA6007F1400300221A603E
:102360005A6007F1240300221A605A609A60DA600A
:102370001A615A619A613B1D20220021184604F01F
:10238000B5FF3F4B3F4A1A603D4B4FF434725A60E1
:102390003B4B00229A603A4B40F2CF72DA60384BE6
:1023A00000221A61364B00225A61354B80229A6115
:1023B000334802F099FE0346002B01D000F07AFA70
:1023C0004FF48053BB6407F1480319462C4803F0CF
:1023D000EFFA0346002B01D000F06CFA284802F017
:1023E000D2FE0346002B01D000F064FA00233B64C8
:1023F00000237B6407F140031946214803F068FE7F
:102400000346002B01D000F055FA60237B620023C5
:10241000BB620023FB6200233B6300237B6300233A
:10242000BB630023FB6307F1240300221946144811
:1024300003F0FCF90346002B01D000F03BFA002327
:102440007B600023BB600023FB6000233B61002313
:102450007B614FF40053BB6100233B623B1D194677
:10246000074803F093FE0346002B01D000F022FA48
:10247000034800F023FC00BF5837BD4680BD00BFB5
:10248000D4020020002C014080B58EB000AF07F1CF
:10249000280300221A605A609A60DA6007F120036C
:1024A00000221A605A603B1D00221A605A609A602E
:1024B000DA601A615A619A613A4B4FF080421A60B1
:1024C000384B00225A60374B00229A60354BFF226E
:1024D000DA60344B00221A61324B80229A61314813
:1024E00002F002FE0346002B01D000F0E3F94FF4A6
:1024F0008053BB6207F1280319462A4803F058FAB3
:102500000346002B01D000F0D5F9264802F03BFE2F
:102510000346002B01D000F0CDF900233B620023DD
:102520007B6207F1200319461E4803F0D1FD0346E4
:10253000002B01D000F0BEF960237B600023BB605C
:102540000023FB6000237B613B1D002219461548D8
:1025500003F06CF90346002B01D000F0ABF9114BEE
:102560001B689A690F4B1B6822F008029A613B1D99
:10257000042219460B4803F059F90346002B01D0F9
:1025800000F098F9074B1B689A69064B1B6822F408
:1025900000629A61034800F091FB00BF3837BD46E6
:1025A00080BD00BF1C03002080B58CB000AF07F1D8
:1025B0000C0324220021184604F098FE3B1D002243
:1025C0001A605A60204B214A1A601F4B00225A6041
:1025D0001D4B00229A601C4B4FF6FF72DA601A4BBB
:1025E00000221A61184B00229A610323FB60022328
:1025F0003B6101237B610023BB610023FB6102235C
:102600003B6201237B620023BB620023FB6207F174
:102610000C0319460C4802F0B1FE0346002B01D012
:1026200000F048F900237B600023BB603B1D194686
:10263000054803F04DFD0346002B01D000F03AF9A8
:1026400000BF3037BD4680BD640300200004004059
:1026500080B58CB000AF07F10C032422002118468E
:1026600004F044FE3B1D00221A605A60204B214AB0
:102670001A601F4B00225A601D4B00229A601C4BAF
:102680004FF6FF72DA601A4B00221A61184B0022D3
:102690009A610323FB6002233B6101237B610023DA
:1026A000BB610023FB6102233B6201237B620023A9
:1026B000BB620023FB6207F10C0319460C4802F0D1
:1026C0005DFE0346002B01D000F0F4F800237B6090
:1026D0000023BB603B1D1946054803F0F9FC034687
:1026E000002B01D000F0E6F800BF3037BD4680BDBA
:1026F000AC0300200008004080B500AF114B124A27
:102700001A60104B4FF416525A600E4B00229A601A
:102710000C4B0022DA600B4B00221A61094B0C2291
:102720005A61084B00229A61064B0022DA61054883
:1027300003F08FFD0346002B01D000F0BBF800BF73
:1027400080BD00BFF40300200038014080B500AF19
:10275000114B124A1A60104B4FF4E1325A600E4B83
:1027600000229A600C4B0022DA600B4B00221A61A7
:10277000094B0C225A61084B00229A61064B002239
:10278000DA61054803F065FD0346002B01D000F037
:1027900091F800BF80BD00BF3C0400200044004011
:1027A00080B588B000AF07F1100300221A605A60AC
:1027B0009A60DA603B4B9B693A4A43F0100393619D
:1027C000384B9B6903F01003FB60FB68354B9B693A
:1027D000344A43F020039361324B9B6903F020039A
:1027E000BB60BB682F4B9B692E4A43F00403936187
:1027F0002C4B9B6903F004037B607B68294B9B692E
:10280000284A43F008039361264B9B6903F00803B1
:102810003B603B6800224FF47041234801F008F808
:1028200000224FF40061214801F002F84FF4804388
:102830003B6100237B610023BB6107F11003194654
:102840001B4800F071FE4FF470433B6101237B6134
:102850000023BB610223FB6107F1100319461248F4
:1028600000F062FE4FF400633B6101237B610023B3
:10287000BB610223FB6107F1100319460B4800F00E
:1028800053FE4FF480533B6100237B610023BB6107
:1028900007F110031946054800F046FE00BF203737
:1028A000BD4680BD00100240000C01400008014000
:1028B0000010014080B500AF72B600BF014804F0BF
:1028C00001FCFBE74C83000880B582B002AF0F4BE0
:1028D0006B221A700D4B00225A706423009302235E
:1028E0000A4AD0210A4801F0FFF8084B19221A7051
:1028F000064B07225A70642300930223034AD02117
:10290000034801F0F1F800BFBD4680BDD0040020AF
:102910002C02002080B584B002AF114B3B221A700C
:102920000F4B00225A706423009301230C4AD021DC
:102930000C4801F0D9F8642300930E230A4AD021F1
:10294000084801F0CFF90346FB71FB79002B0CBF5F
:1029500001230023DBB218460837BD4680BD00BF07
:10296000D00400202C020020D404002080B500AF49
:10297000094B9B7A1B021AB2074BDB7A1BB213433B
:102980001BB21846FEF764F9034604491846FEF7E1
:1029900067FA0346184680BDD404002000000343B4
:1029A00080B500AF094B1B7B1B021AB2074B5B7B48
:1029B0001BB213431BB21846FEF74AF903460449FB
:1029C0001846FEF74DFA0346184680BDD404002091
:1029D0000000034380B500AF094B1B7A1B021AB2FB
:1029E000074B5B7A1BB213431BB21846FEF730F954
:1029F000034604491846FEF733FA0346184680BDDD
:102A0000D40400200000034380B485B000AF154B10
:102A10009B69144A43F001039361124B9B6903F0D5
:102A20000103BB60BB680F4BDB690E4A43F0805368
:102A3000D3610C4BDB6903F080537B607B680A4BEE
:102A40005B68FB60FB6823F0E063FB60FB6843F0BE
:102A50000073FB60044AFB68536000BF1437BD4637
:102A600080BC7047001002400000014080B58CB06F
:102A700000AF786007F11C0300221A605A609A6068
:102A8000DA607B681B68324A934233D1314B9B69D1
:102A9000304A43F0080393612E4B9B6903F008030F
:102AA000BB61BB694FF44073FB6112233B6203239C
:102AB000BB6207F11C031946274800F035FD274B80
:102AC0005B68FB62FB6A43F0E063FB62FB6A43F016
:102AD0000203FB62214AFB6A53601E4BDB691D4AFD
:102AE00043F40013D3611B4BDB6903F400137B61D8
:102AF0007B6929E07B681B68194A934224D1154BF6
:102B00009B69144A43F008039361124B9B6903F0DD
:102B100008033B613B694FF44063FB6112233B6256
:102B20000323BB6207F11C0319460B4800F0FCFCB1
:102B3000084BDB69074A43F48003D361054BDB692B
:102B400003F48003FB60FB6800BF3037BD4680BDE7
:102B50000054004000100240000C01400000014001
:102B60000058004080B485B000AF78607B681B6877
:102B7000124A93420CD1124B9B69114A43F40063F1
:102B800093610F4B9B6903F40063FB60FB6810E0EB
:102B90007B681B68B3F1804F0BD1094BDB69084A96
:102BA00043F00103D361064BDB6903F00103BB6013
:102BB000BB6800BF1437BD4680BC7047002C014085
:102BC0000010024080B58AB000AF786007F11803AA
:102BD00000221A605A609A60DA607B681B68324A89
:102BE00093422CD1314BDB69304A43F00203D3616D
:102BF0002E4BDB6903F002037B617B692B4B9B69E6
:102C00002A4A43F004039361284B9B6903F00403B1
:102C10003B613B69C023BB610023FB6100233B6236
:102C200007F118031946224800F07EFC002200211B
:102C30001D2000F090FB1D2000F0A9FB30E07B6818
:102C40001B681C4A93422BD1184BDB69174A43F08F
:102C50000403D361154BDB6903F00403FB60FB68DD
:102C6000124B9B69114A43F0080393610F4B9B6918
:102C700003F00803BB60BB68C023BB610023FB619A
:102C800000233B6207F1180319460B4800F04CFC87
:102C9000002200211E2000F05EFB1E2000F077FBCA
:102CA00000BF2837BD4680BD000400400010024030
:102CB0000008014000080040000C014080B588B0C9
:102CC00000AF786007F1100300221A605A609A6022
:102CD000DA607B681B681F4A934219D11E4B9B69BF
:102CE0001D4A43F0040393611B4B9B6903F00403EB
:102CF000FB60FB684FF480733B6102237B6102231E
:102D0000FB6107F110031946144800F00DFC1CE0AC
:102D10007B681B68B3F1804F17D10F4B9B690E4A3C
:102D200043F0040393610C4B9B6903F00403BB6005
:102D3000BB6803233B6102237B610223FB6107F134
:102D400010031946054800F0EFFB00BF2037BD46D1
:102D500080BD00BF002C014000100240000801406F
:102D600080B58AB000AF786007F1180300221A60BE
:102D70005A609A60DA607B681B683B4A93423AD19A
:102D80003A4B9B69394A43F480439361374B9B69C3
:102D900003F480437B617B69344B9B69334A43F086
:102DA00004039361314B9B6903F004033B613B696E
:102DB0004FF40073BB610223FB6103237B6207F1C5
:102DC000180319462A4800F0AFFB4FF48063BB613B
:102DD0000023FB6100233B6207F1180319462448D6
:102DE00000F0A2FB00220021252000F0B4FA2520EB
:102DF00000F0CDFA34E07B681B681E4A93422FD165
:102E00001A4BDB69194A43F40033D361174BDB6972
:102E100003F40033FB60FB68144B9B69134A43F0D7
:102E200004039361114B9B6903F00403BB60BB680F
:102E30000423BB610223FB6103237B6207F11803B8
:102E400019460B4800F070FB0823BB610023FB61AF
:102E500000233B6207F118031946054800F064FBA4
:102E600000BF2837BD4680BD003801400010024039
:102E7000000801400044004080B400AFFEE780B489
:102E800000AFFEE780B400AFFEE780B400AFFEE71E
:102E900080B400AFFEE780B400AF00BFBD4680BC89
:102EA000704780B400AF00BFBD4680BC704780B49F
:102EB00000AF00BFBD4680BC704780B500AF00F0DA
:102EC00033F900BF80BD000080B500AF024802F0BA
:102ED000A5FB00BF80BD00BF6403002080B500AF2C
:102EE000024802F09BFB00BF80BD00BFAC03002086
:102EF00080B500AF024803F07FFA00BF80BD00BF7D
:102F0000F403002080B586B000AFF860B9607A6045
:102F100000237B610AE0AFF300800146BB685A1CC6
:102F2000BA60CAB21A707B6901337B617A697B68C7
:102F30009A42F0DB7B6818461837BD4680BD80B5E5
:102F400086B000AFF860B9607A6000237B6109E069
:102F5000BB685A1CBA601B781846FEF7A7FC7B6951
:102F600001337B617A697B689A42F1DB7B681846A2
:102F70001837BD4680BD80B483B000AF78604FF095
:102F8000FF3318460C37BD4680BC704780B483B011
:102F900000AF786039603B684FF400525A600023FC
:102FA00018460C37BD4680BC704780B483B000AF74
:102FB0007860012318460C37BD4680BC704780B44A
:102FC00085B000AFF860B9607A6000231846143706
:102FD000BD4680BC7047000080B586B000AF786009
:102FE000144A154BD31A7B617B693B61134B1B68F9
:102FF000002B02D1114B124A1A60104B1A687B68E1
:1030000013443A699A4207D204F0BEF903460C22EF
:103010001A604FF0FF3309E0084B1B68FB60074B59
:103020001A687B681344054A1360FB681846183712
:10303000BD4680BD0050002000040000E4040020D4
:103040003806002080B400AF00BFBD4680BC70478A
:10305000FFF7F8FF0B480C490C4A002302E0D45854
:10306000C4500433C4188C42F9D3094A094C0023D4
:1030700001E013600432A242FBD304F08BF9FEF7A7
:103080005FFF7047000000208C000020D483000800
:103090009000002038060020FEE7000080B500AF59
:1030A000084B1B68074A43F010031360032000F02D
:1030B00047F90F2000F008F8FFF7A6FC0023184698
:1030C00080BD00BF0020024080B582B000AF7860B4
:1030D000124B1A68124B1B7819464FF47A73B3FBE4
:1030E000F1F3B2FBF3F3184600F05FF90346002B4F
:1030F00001D001230EE07B680F2B0AD800227968EB
:103100004FF0FF3000F027F9064A7B681360002378
:1031100000E0012318460837BD4680BD240000208A
:103120002C0000202800002080B400AF054B1B7845
:103130001A46054B1B681344034A136000BFBD4683
:1031400080BC70472C000020E804002080B400AF51
:10315000024B1B681846BD4680BC7047E80400203F
:1031600080B584B000AF7860FFF7F0FFB8607B688F
:10317000FB60FB68B3F1FF3F05D00A4B1B781A4692
:10318000FB681344FB6000BFFFF7E0FF0246BB682B
:10319000D31AFA689A42F7D800BF00BF1037BD466D
:1031A00080BD00BF2C00002080B485B000AF7860E7
:1031B0007B6803F00703FB600C4BDB68BB60BA68FD
:1031C0004FF6FF031340BB60FB681A02BB68134352
:1031D00043F0BF6343F40033BB60044ABB68D36071
:1031E00000BF1437BD4680BC704700BF00ED00E053
:1031F00080B400AF044BDB681B0A03F007031846DA
:10320000BD4680BC704700BF00ED00E080B483B0D5
:1032100000AF0346FB7197F90730002B0BDBFB79FE
:1032200003F01F02064997F907305B09012000FAF5
:1032300002F241F8232000BF0C37BD4680BC704726
:1032400000E100E080B483B000AF03463960FB7159
:1032500097F90730002B0ADB3B68DAB20C4997F983
:1032600007301201D2B20B4483F800230AE03B6816
:10327000DAB20849FB7903F00F03043B1201D2B222
:103280000B441A7600BF0C37BD4680BC704700BFA8
:1032900000E100E000ED00E080B489B000AFF8602C
:1032A000B9607A60FB6803F00703FB61FB69C3F157
:1032B0000703042B28BF0423BB61FB690433062BDF
:1032C00002D9FB69033B00E000237B614FF0FF3232
:1032D000BB6902FA03F3DA43BB681A407B699A4080
:1032E0004FF0FF317B6901FA03F3D9437B680B4050
:1032F000134318462437BD4680BC704780B582B062
:1033000000AF78607B68013BB3F1807F01D301237C
:103310000FE00A4A7B68013B53600F214FF0FF30FA
:10332000FFF790FF054B00229A60044B07221A60BA
:10333000002318460837BD4680BD00BF10E000E0FE
:1033400080B582B000AF78607868FFF72DFF00BFCE
:103350000837BD4680BD80B586B000AF0346B96072
:103360007A60FB7300237B61FFF742FF78617A6824
:10337000B9687869FFF790FF024697F90F30114658
:103380001846FFF75FFF00BF1837BD4680BD80B508
:1033900082B000AF0346FB7197F907301846FFF77C
:1033A00035FF00BF0837BD4680BD80B582B000AF95
:1033B00078607868FFF7A2FF034618460837BD46D5
:1033C00080BD80B485B000AF78600023FB737B685C
:1033D00093F82130DBB2022B08D07B6804229A6379
:1033E0007B68002283F82020012320E07B681B6893
:1033F0001A687B681B6822F00E021A607B681B68E3
:103400001A687B681B6822F001021A607B681A6CDC
:103410007B68DB6B012101FA02F25A607B680122B2
:1034200083F821207B68002283F82020FB7B18464C
:103430001437BD4680BC704780B584B000AF78605B
:103440000023FB737B6893F82130DBB2022B05D09D
:103450007B6804229A630123FB7351E07B681B683D
:103460001A687B681B6822F00E021A607B681B6872
:103470001A687B681B6822F001021A607B681B686F
:10348000224A934229D07B681B68214A934222D06A
:103490007B681B681F4A93421AD07B681B681E4AD0
:1034A000934212D07B681B681C4A93420AD07B6807
:1034B0001B681B4A934202D14FF480130EE04FF079
:1034C00080730BE04FF4803308E04FF4805305E045
:1034D0004FF4807302E0102300E00123114A53608F
:1034E0007B68012283F821207B68002283F820205A
:1034F0007B685B6B002B03D07B685B6B78689847BD
:10350000FB7B18461037BD4680BD00BF0800024057
:103510001C000240300002404400024058000240BB
:103520006C0002400000024080B48BB000AF7860B5
:10353000396000237B6200233B6269E101227B6AE0
:1035400002FA03F3FB613B681B68FA691340BB6135
:10355000BA69FB699A4240F058813B685B689A4AB5
:1035600093425ED0984A934275D8984A934258D075
:10357000964A93426FD8964A934252D0944A9342C5
:1035800069D8944A93424CD0924A934263D8924A63
:10359000934246D0904A93425DD8122B2AD8122BE0
:1035A00059D801A252F823F023360008FD3500084F
:1035B0000F36000851360008573600085736000805
:1035C00057360008573600085736000857360008A7
:1035D0005736000857360008573600085736000897
:1035E00057360008573600085736000805360008D9
:1035F00019360008794A934213D02CE03B68DB6807
:103600003B6229E03B68DB6804333B6224E03B68B3
:10361000DB6808333B621FE03B68DB680C333B62CE
:103620001AE03B689B68002B02D104233B6213E045
:103630003B689B68012B05D108233B627B68FA69D4
:103640001A6109E008233B627B68FA695A6103E06A
:1036500000233B6200E000BFBB69FF2B01D87B6801
:1036600001E07B6804337B61BB69FF2B02D87B6A76
:103670009B0002E07B6A083B9B003B617B691A6808
:103680000F213B6901FA03F3DB431A40396A3B69B6
:1036900001FA03F31A437B691A603B685B6803F025
:1036A0008053002B00F0B1804D4B9B694C4A43F096
:1036B000010393614A4B9B6903F00103BB60BB6844
:1036C000484A7B6A9B08023352F82330FB607B6ACE
:1036D00003F003039B000F2202FA03F3DB43FA68B3
:1036E0001340FB607B68404A934213D07B683F4A9B
:1036F00093420DD07B683E4A934207D07B683D4A97
:10370000934201D1032306E0042304E0022302E0F4
:10371000012300E000237A6A02F003029200934042
:10372000FA681343FB602F497B6A9B080233FA68EF
:1037300041F823203B685B6803F48013002B06D01C
:103740002D4B9A682C49BB6913438B6006E02A4BCA
:103750009A68BB69DB43284913408B603B685B6810
:1037600003F40013002B06D0234BDA682249BB690F
:103770001343CB6006E0204BDA68BB69DB431E498C
:103780001340CB603B685B6803F40033002B06D02A
:10379000194B5A681849BB6913434B6006E0164B36
:1037A0005A68BB69DB43144913404B603B685B6854
:1037B00003F48033002B21D00F4B1A680E49BB69EC
:1037C00013430B6021E000BF0000321000003110F5
:1037D0000000221000002110000012100000111043
:1037E000001002400000014000080140000C0140B0
:1037F0000010014000140140000401400B4B1A6806
:10380000BB69DB43094913400B607B6A01337B6270
:103810003B681A687B6A22FA03F3002B7FF48EAEB2
:1038200000BF00BF2C37BD4680BC7047000401407C
:1038300080B483B000AF78600B467B8013467B700A
:103840007B78002B03D07A887B681A6103E07B8841
:103850001A047B681A6100BF0C37BD4680BC7047F4
:1038600080B584B000AF78607B68002B01D1012364
:103870002BE17B6893F83D30DBB2002B06D17B68EF
:10388000002283F83C207868FFF7F0F87B68242258
:1038900083F83D207B681B681A687B681B6822F0F0
:1038A00001021A607B681B681A687B681B6842F417
:1038B00000421A607B681B681A687B681B6822F4E8
:1038C00000421A6001F0CAFBF8607B685B68814ABD
:1038D000934207D8FB68804A934294BF0123002398
:1038E000DBB206E0FB687D4A934294BF01230023CC
:1038F000DBB2002B01D00123E7E0FB68784AA2FB92
:1039000003239B0CBB607B681B685B6823F03F0153
:103910007B681B68BA680A435A607B681B681B6A2D
:1039200023F03F017B685B686A4A934202D8BB6818
:10393000013309E0BB684FF4967202FB03F3694A56
:10394000A2FB03239B0901337A6812680B431362BD
:103950007B681B68DB6923F44F4222F0FF027B681F
:103960005B685C498B4219D8FB68591E7B685B68B1
:103970005B00B1FBF3F3591C40F6FC730B40002BCA
:103980000AD0FB68591E7B685B685B00B1FBF3F3F0
:103990000133C3F30B0351E004234FE07B689B68C2
:1039A000002B11D1FB68581E7B6859680B465B00E1
:1039B0000B44B0FBF3F30133C3F30B03002B0CBF39
:1039C00001230023DBB212E0FB68581E7B685968B4
:1039D0000B469B000B4499000B44B0FBF3F30133FF
:1039E000C3F30B03002B0CBF01230023DBB2002B1E
:1039F00001D0012322E07B689B68002B0ED1FB687D
:103A0000581E7B6859680B465B000B44B0FBF3F310
:103A10000133C3F30B0343F400430FE0FB68581E6C
:103A20007B6859680B469B000B4499000B44B0FB24
:103A3000F3F30133C3F30B0343F44043796809689C
:103A40001343CB617B681B681B6823F0C0017B6854
:103A5000DA697B681B6A1A437B681B680A431A6031
:103A60007B681B689B6823F4034323F0FF037A6899
:103A700011697A68D26811437A6812680B439360BF
:103A80007B681B68DB6823F0FF017B685A697B68F1
:103A90009B691A437B681B680A43DA607B681B6872
:103AA0001A687B681B6842F001021A607B6800227A
:103AB0001A647B68202283F83D207B6800221A6309
:103AC0007B68002283F83E20002318461037BD464D
:103AD00080BD00BFA08601007F841E00FF083D005E
:103AE00083DE1B43D34D621080B588B002AFF8600F
:103AF0007A601A460B467B8113463B81FFF726FB13
:103B00007861FB6893F83D30DBB2202B40F0E08019
:103B10007B690093192301227049F86800F09EFC2C
:103B20000346002B01D00223D3E0FB6893F83C301E
:103B3000012B01D10223CCE0FB68012283F83C2059
:103B4000FB681B681B6803F00103012B07D0FB68AF
:103B50001B681A68FB681B6842F001021A60FB6868
:103B60001B681A68FB681B6822F400621A60FB6815
:103B7000212283F83D20FB68102283F83E20FB6859
:103B800000221A64FB687A685A62FB683A895A858F
:103B9000FB685B8D9AB2FB681A85FB68504ADA6253
:103BA00079897B693A6AF86800F008FB0346002BC4
:103BB00001D001238DE000233B61FB681B685B693A
:103BC0003B61FB681B689B693B613B6966E07A6906
:103BD000396AF86800F05CFD0346002B0DD0FB68E5
:103BE0001B6C042B07D1FB681B681A68FB681B68F9
:103BF00042F400721A6001236BE0FB685B6A1A787A
:103C0000FB681B681A61FB685B6A5A1CFB685A6296
:103C1000FB685B8D9BB2013B9AB2FB685A85FB68DF
:103C20001B8D013B9AB2FB681A85FB681B685B69B8
:103C300003F00403042B1BD1FB681B8D002B17D052
:103C4000FB685B6A1A78FB681B681A61FB685B6A31
:103C50005A1CFB685A62FB685B8D9BB2013B9AB2AF
:103C6000FB685A85FB681B8D013B9AB2FB681A857D
:103C70007A69396AF86800F053FD0346002B0DD0CD
:103C8000FB681B6C042B07D1FB681B681A68FB6878
:103C90001B6842F400721A6001231AE0FB681B8D56
:103CA000002B94D1FB681B681A68FB681B6842F400
:103CB00000721A60FB68202283F83D20FB68002216
:103CC00083F83E20FB68002283F83C20002300E0BC
:103CD000022318461837BD4680BD00BF0200100001
:103CE0000000FFFF80B58CB002AFF8607A601A4622
:103CF0000B467B8113463B8100233B62FFF726FA8C
:103D00007862FB6893F83D30DBB2202B40F04B82A9
:103D10007B6A0093192301227F49F86800F09EFB1B
:103D20000346002B01D002233EE2FB6893F83C30AF
:103D3000012B01D1022337E2FB68012283F83C20EA
:103D4000FB681B681B6803F00103012B07D0FB68AD
:103D50001B681A68FB681B6842F001021A60FB6866
:103D60001B681A68FB681B6822F400621A60FB6813
:103D7000222283F83D20FB68102283F83E20FB6856
:103D800000221A64FB687A685A62FB683A895A858D
:103D9000FB685B8D9AB2FB681A85FB685F4ADA6242
:103DA00079897B6A3A6BF86800F08AFA0346002B3F
:103DB00001D00123F8E1FB681B8D002B13D10023F8
:103DC000FB61FB681B685B69FB61FB681B689B69A7
:103DD000FB61FB69FB681B681A68FB681B6842F49F
:103DE00000721A60CCE1FB681B8D012B1ED1FB68B1
:103DF0001B681A68FB681B6822F480621A6072B63E
:103E000000BF0023BB61FB681B685B69BB61FB688B
:103E10001B689B69BB61BB69FB681B681A68FB6810
:103E20001B6842F400721A6062B635E0FB681B8DB5
:103E3000022B1ED1FB681B681A68FB681B6842F4E2
:103E400000621A6072B600BF00237B61FB681B68CA
:103E50005B697B61FB681B689B697B617B69FB68B5
:103E60001B681A68FB681B6822F480621A6062B6DD
:103E700012E0FB681B681A68FB681B6842F48062EA
:103E80001A6000233B61FB681B685B693B61FB6850
:103E90001B689B693B613B6972E1FB681B8D032BCF
:103EA00000F21F81FB681B8D012B23D17A6A396BCD
:103EB000F86800F07DFC0346002B01D0012373E17C
:103EC000FB681B681A69FB685B6AD2B21A70FB68F0
:103ED0005B6A5A1CFB685A62FB681B8D013B9AB2F5
:103EE000FB681A85FB685B8D9BB2013B9AB2FB684D
:103EF0005A8545E1FB681B8D022B52D17B6A0093EA
:103F00003B6B00220649F86800F0A8FA0346002B34
:103F100008D0012348E100BF020010000000FFFFAD
:103F20000400010072B600BFFB681B681A68FB68DA
:103F30001B6842F400721A60FB681B681A69FB6810
:103F40005B6AD2B21A70FB685B6A5A1CFB685A62E1
:103F5000FB681B8D013B9AB2FB681A85FB685B8D81
:103F60009BB2013B9AB2FB685A8562B600BFFB6800
:103F70001B681A69FB685B6AD2B21A70FB685B6ADD
:103F80005A1CFB685A62FB681B8D013B9AB2FB68A6
:103F90001A85FB685B8D9BB2013B9AB2FB685A8520
:103FA000EEE07B6A00933B6B00228149F86800F0E9
:103FB00055FA0346002B01D00123F5E0FB681B688E
:103FC0001A68FB681B6822F480621A6072B600BF30
:103FD000FB681B681A69FB685B6AD2B21A70FB68DF
:103FE0005B6A5A1CFB685A62FB681B8D013B9AB2E4
:103FF000FB681A85FB685B8D9BB2013B9AB2FB683C
:104000005A856C4B1B68DB086B4AA2FB03231A0A18
:1040100013469B001344DA00D31A3B623B6A013B10
:104020003B623B6A002B18D1FB6800221A63FB68D5
:10403000202283F83D20FB68002283F83E20FB68A5
:104040001B6C43F02002FB681A6462B600BFFB6879
:10405000002283F83C200123A6E0FB681B685B6913
:1040600003F00403042BD9D1FB681B681A68FB68B2
:104070001B6842F400721A60FB681B681A69FB68CF
:104080005B6AD2B21A70FB685B6A5A1CFB685A62A0
:10409000FB681B8D013B9AB2FB681A85FB685B8D40
:1040A0009BB2013B9AB2FB685A8562B600BFFB68BF
:1040B0001B681A69FB685B6AD2B21A70FB685B6A9C
:1040C0005A1CFB685A62FB681B8D013B9AB2FB6865
:1040D0001A85FB685B8D9BB2013B9AB2FB685A85DF
:1040E0004EE07A6A396BF86800F062FB0346002BF9
:1040F00001D0012358E0FB681B681A69FB685B6A02
:10410000D2B21A70FB685B6A5A1CFB685A62FB6881
:104110001B8D013B9AB2FB681A85FB685B8D9BB2D5
:10412000013B9AB2FB685A85FB681B685B6903F028
:104130000403042B24D1FB681B8D032B07D1FB68E0
:104140001B681A68FB681B6822F480621A60FB68AF
:104150001B681A69FB685B6AD2B21A70FB685B6AFB
:104160005A1CFB685A62FB681B8D013B9AB2FB68C4
:104170001A85FB685B8D9BB2013B9AB2FB685A853E
:10418000FB681B8D002B7FF488AEFB68202283F830
:104190003D20FB68002283F83E20FB68002283F864
:1041A0003C20002300E0022318462837BD4680BD8E
:1041B000040001002400002089B5F81480B588B0FF
:1041C00002AFF8607A603B600B467B81FB68DB6A7C
:1041D0007B617B69082B06D07B69012B03D07B694F
:1041E00013F5803F08D1FB681B681A68FB681B68E1
:1041F00042F480721A600BE0FB681B6B122B07D134
:10420000FB681B681A68FB681B6842F480721A60BE
:104210003B6800937B6800224FF00111F86800F0C2
:104220001DF90346002B0DD0FB681B681B6803F4C7
:104230008073B3F5807F03D1FB684FF400721A647A
:10424000032335E0FB681B69B3F5804F08D17B89F8
:10425000DBB21A46FB681B6802F0FE021A611BE023
:104260007B89DB11DBB203F00603DBB263F00F03E3
:10427000DAB2FB681B681A613B687A680E49F86815
:1042800000F066F90346002B01D0012310E07B8982
:10429000DAB2FB681B681A613B687A680749F868FC
:1042A00000F056F90346002B01D0012300E0002363
:1042B00018461837BD4680BD080001000200010005
:1042C00080B588B002AFF8607A603B600B467B81B6
:1042D000FB68DB6A7B61FB681B681A68FB681B680C
:1042E00042F480621A607B69082B06D07B69012B3F
:1042F00003D07B6913F5803F08D1FB681B681A68FF
:10430000FB681B6842F480721A600BE0FB681B6B51
:10431000112B07D1FB681B681A68FB681B6842F405
:1043200080721A603B6800937B6800224FF0011195
:10433000F86800F093F80346002B0DD0FB681B686B
:104340001B6803F48073B3F5807F03D1FB684FF4DF
:1043500000721A64032379E0FB681B69B3F5804F90
:1043600008D17B89DBB243F00103DAB2FB681B683A
:104370001A615FE07B89DB11DBB203F00603DBB27D
:1043800063F00F03DAB2FB681B681A613B687A6856
:104390003049F86800F0DCF80346002B01D0012317
:1043A00054E07B89DAB2FB681B681A613B687A6863
:1043B0002949F86800F0CCF80346002B01D001230E
:1043C00044E000233B61FB681B685B693B61FB6861
:1043D0001B689B693B613B69FB681B681A68FB684B
:1043E0001B6842F480721A603B6800937B6800226D
:1043F0004FF00111F86800F031F80346002B0DD0A2
:10440000FB681B681B6803F48073B3F5807F03D1DE
:10441000FB684FF400721A64032317E07B89DB11F9
:10442000DBB203F00603DBB263F00E03DAB2FB6823
:104430001B681A613B687A680749F86800F088F8D9
:104440000346002B01D0012300E000231846183753
:10445000BD4680BD080001000200010080B584B0A7
:1044600000AFF860B9603B601346FB7148E03B6801
:10447000B3F1FF3F44D0FEF769FE0246BB69D31A91
:104480003A689A4202D33B68002B39D1BB681B0CB7
:10449000DBB2012B0DD1FB681B685B69DA43BB689B
:1044A00013409BB2002B0CBF01230023DBB21A4642
:1044B0000CE0FB681B689B69DA43BB6813409BB246
:1044C000002B0CBF01230023DBB21A46FB799A4272
:1044D00016D1FB6800221A63FB68202283F83D2076
:1044E000FB68002283F83E20FB681B6C43F020022F
:1044F000FB681A64FB68002283F83C20012323E058
:10450000BB681B0CDBB2012B0DD1FB681B685B6920
:10451000DA43BB6813409BB2002B0CBF012300237E
:10452000DBB21A460CE0FB681B689B69DA43BB6888
:1045300013409BB2002B0CBF01230023DBB21A46B1
:10454000FB799A4293D0002318461037BD4680BDB0
:1045500080B584B000AFF860B9607A603B6071E00C
:10456000FB681B685B6903F48063B3F5806F23D13C
:10457000FB681B681A68FB681B6842F400721A60CB
:10458000FB681B686FF480625A61FB6800221A6343
:10459000FB68202283F83D20FB68002283F83E2040
:1045A000FB681B6C43F00402FB681A64FB68002282
:1045B00083F83C20012367E07B68B3F1FF3F41D0E3
:1045C000FEF7C4FD02463B68D31A7A689A4202D3CA
:1045D0007B68002B36D1BB681B0CDBB2012B0CD1E6
:1045E000FB681B685B69DA43BB6813409BB2002B16
:1045F00014BF01230023DBB20BE0FB681B689B693F
:10460000DA43BB6813409BB2002B14BF0123002385
:10461000DBB2002B16D0FB6800221A63FB68202255
:1046200083F83D20FB68002283F83E20FB681B6C6A
:1046300043F02002FB681A64FB68002283F83C20E8
:10464000012321E0BB681B0CDBB2012B0CD1FB6802
:104650001B685B69DA43BB6813409BB2002B14BF35
:1046600001230023DBB20BE0FB681B689B69DA4384
:10467000BB6813409BB2002B14BF01230023DBB2A5
:10468000002B7FF46DAF002318461037BD4680BD68
:1046900080B584B000AFF860B9607A6034E0F86843
:1046A00000F0E3F80346002B01D0012334E0BB689F
:1046B000B3F1FF3F28D0FEF749FD02467B68D31ACD
:1046C000BA689A4202D3BB68002B1DD1FB681B68F5
:1046D0005B6903F08003802B16D0FB6800221A630D
:1046E000FB68202283F83D20FB68002283F83E20EF
:1046F000FB681B6C43F02002FB681A64FB68002215
:1047000083F83C20012307E0FB681B685B6903F02A
:104710008003802BC3D1002318461037BD4680BDCF
:1047200080B584B000AFF860B9607A6034E0F868B2
:1047300000F09BF80346002B01D0012334E0BB6856
:10474000B3F1FF3F28D0FEF701FD02467B68D31A84
:10475000BA689A4202D3BB68002B1DD1FB681B6864
:104760005B6903F00403042B16D0FB6800221A6374
:10477000FB68202283F83D20FB68002283F83E205E
:10478000FB681B6C43F02002FB681A64FB68002284
:1047900083F83C20012307E0FB681B685B6903F09A
:1047A0000403042BC3D1002318461037BD4680BD37
:1047B00080B584B000AFF860B9607A6049E0FB680A
:1047C0001B685B6903F01003102B19D1FB681B6891
:1047D0006FF010025A61FB6800221A63FB68202206
:1047E00083F83D20FB68002283F83E20FB681A6CAA
:1047F000FB681A64FB68002283F83C20012330E048
:10480000FEF7A4FC02467B68D31ABA689A4202D328
:10481000BB68002B1DD1FB681B685B6903F040037C
:10482000402B16D0FB6800221A63FB68202283F815
:104830003D20FB68002283F83E20FB681B6C43F0A0
:104840002002FB681A64FB68002283F83C200123E5
:1048500007E0FB681B685B6903F04003402BAED1A7
:10486000002318461037BD4680BD80B483B000AF2A
:1048700078607B681B685B6903F48063B3F5806FC5
:104880001BD17B681B686FF480625A617B680022D1
:104890001A637B68202283F83D207B68002283F81E
:1048A0003E207B681B6C43F004027B681A647B68C3
:1048B000002283F83C20012300E0002318460C3737
:1048C000BD4680BC7047000080B586B000AF786000
:1048D0007B68002B01D1012372E27B681B6803F027
:1048E0000103002B00F08780924B5B6803F00C0300
:1048F000042B0CD08F4B5B6803F00C03082B12D1F8
:104900008C4B5B6803F48033B3F5803F0BD1894B4C
:104910001B6803F40033002B6CD07B685B68002BB2
:1049200068D101234CE27B685B68B3F5803F06D118
:10493000804B1B687F4A43F4803313602EE07B6812
:104940005B68002B0CD17B4B1B687A4A23F48033C5
:104950001360784B1B68774A23F4802313601DE0B3
:104960007B685B68B3F5A02F0CD1724B1B68714A52
:1049700043F4802313606F4B1B686E4A43F480330B
:1049800013600BE06B4B1B686A4A23F4803313609F
:10499000684B1B68674A23F4802313607B685B685D
:1049A000002B13D0FEF7D2FB386108E0FEF7CEFBF8
:1049B00002463B69D31A642B01D9032300E25D4B05
:1049C0001B6803F40033002BF0D014E0FEF7BEFBAD
:1049D000386108E0FEF7BAFB02463B69D31A642B44
:1049E00001D90323ECE1534B1B6803F40033002B84
:1049F000F0D100E000BF7B681B6803F00203002BCE
:104A000063D04C4B5B6803F00C03002B0BD0494B7D
:104A10005B6803F00C03082B1CD1464B5B6803F466
:104A20008033002B16D1434B1B6803F00203002B8D
:104A300005D07B681B69012B01D00123C0E13D4BF0
:104A40001B6823F0F8027B685B69DB00394913437C
:104A50000B603AE07B681B69002B20D0364B0122AB
:104A60001A60FEF773FB386108E0FEF76FFB024641
:104A70003B69D31A022B01D90323A1E12D4B1B68FB
:104A800003F00203002BF0D02A4B1B6823F0F8023E
:104A90007B685B69DB00274913430B6015E0264BFD
:104AA00000221A60FEF752FB386108E0FEF74EFB69
:104AB00002463B69D31A022B01D9032380E11D4B27
:104AC0001B6803F00203002BF0D17B681B6803F026
:104AD0000803002B3AD07B689B69002B19D0174B39
:104AE00001221A60FEF732FB386108E0FEF72EFB68
:104AF00002463B69D31A022B01D9032360E10D4B17
:104B00005B6A03F00203002BF0D0012000F0CEFA24
:104B10001CE00A4B00221A60FEF718FB38610FE018
:104B2000FEF714FB02463B69D31A022B08D9032374
:104B300046E100BF001002400000424280044242B1
:104B4000924B5B6A03F00203002BE9D17B681B6880
:104B500003F00403002B00F0A6800023FB758B4BB1
:104B6000DB6903F08053002B0DD1884BDB69874A4A
:104B700043F08053D361854BDB6903F08053BB6006
:104B8000BB680123FB75824B1B6803F48073002B09
:104B900018D17F4B1B687E4A43F480731360FEF785
:104BA000D5FA386108E0FEF7D1FA02463B69D31A1C
:104BB000642B01D9032303E1754B1B6803F4807355
:104BC000002BF0D07B68DB68012B06D16F4B1B6A92
:104BD0006E4A43F0010313622DE07B68DB68002B13
:104BE0000CD16A4B1B6A694A23F001031362674BBD
:104BF0001B6A664A23F0040313621CE07B68DB68CF
:104C0000052B0CD1614B1B6A604A43F0040313620D
:104C10005E4B1B6A5D4A43F0010313620BE05B4B82
:104C20001B6A5A4A23F001031362584B1B6A574A06
:104C300023F0040313627B68DB68002B15D0FEF7BA
:104C400085FA38610AE0FEF781FA02463B69D31A19
:104C500041F28832934201D90323B1E04B4B1B6AE6
:104C600003F00203002BEED014E0FEF76FFA386178
:104C70000AE0FEF76BFA02463B69D31A41F288322A
:104C8000934201D903239BE0404B1B6A03F00203CC
:104C9000002BEED1FB7D012B05D13C4BDB693B4A60
:104CA00023F08053D3617B68DB69002B00F08780A1
:104CB000364B5B6803F00C03082B61D07B68DB6923
:104CC000022B46D1334B00221A60FEF73FFA3861BF
:104CD00008E0FEF73BFA02463B69D31A022B01D9E2
:104CE00003236DE0294B1B6803F00073002BF0D108
:104CF0007B681B6AB3F5803F08D1244B5B6823F4C3
:104D000000327B689B68214913434B601F4B5B68F3
:104D100023F474127B68196A7B685B6A0B431B4936
:104D200013434B601B4B01221A60FEF70FFA3861E8
:104D300008E0FEF70BFA02463B69D31A022B01D9B1
:104D400003233DE0114B1B6803F00073002BF0D0F0
:104D500035E0104B00221A60FEF7F8F9386108E0E0
:104D6000FEF7F4F902463B69D31A022B01D903235B
:104D700026E0064B1B6803F00073002BF0D11EE009
:104D80007B68DB69012B07D1012319E00010024089
:104D900000700040600042420B4B5B68FB60FB68A8
:104DA00003F480327B681B6A9A4206D1FB6803F4E5
:104DB00070127B685B6A9A4201D0012300E00023F5
:104DC00018461837BD4680BD0010024080B584B03B
:104DD00000AF786039607B68002B01D10123D0E0FF
:104DE0006A4B1B6803F007033A689A4210D9674B75
:104DF0001B6823F0070265493B6813430B60634B54
:104E00001B6803F007033A689A4201D00123B8E017
:104E10007B681B6803F00203002B20D07B681B68B3
:104E200003F00403002B05D0594B5B68584A43F448
:104E3000E06353607B681B6803F00803002B05D018
:104E4000534B5B68524A43F460535360504B5B686A
:104E500023F0F0027B689B684D4913434B607B68ED
:104E60001B6803F00103002B40D07B685B68012BBB
:104E700007D1474B1B6803F40033002B15D10123E6
:104E80007FE07B685B68022B07D1414B1B6803F016
:104E90000073002B09D1012373E03D4B1B6803F025
:104EA0000203002B01D101236BE0394B5B6823F037
:104EB00003027B685B68364913434B60FEF746F993
:104EC000F8600AE0FEF742F90246FB68D31A41F2A5
:104ED0008832934201D9032353E02D4B5B6803F0E2
:104EE0000C027B685B689B009A42EBD1274B1B68E6
:104EF00003F007033A689A4210D2244B1B6823F050
:104F0000070222493B6813430B60204B1B6803F0E8
:104F100007033A689A4201D0012332E07B681B689C
:104F200003F00403002B08D0194B5B6823F4E06204
:104F30007B68DB68164913434B607B681B6803F092
:104F40000803002B09D0124B5B6823F460527B6886
:104F50001B69DB000E4913434B6000F021F8024649
:104F60000B4B5B681B0903F00F030A49CB5C22FA69
:104F700003F3094A1360094B1B681846FEF7A4F8AF
:104F8000002318461037BD4680BD00BF00200240F8
:104F9000001002406C83000824000020280000203C
:104FA00080B487B000AF0023FB600023BB60002308
:104FB0007B6100237B6000233B611E4B5B68FB60D1
:104FC000FB6803F00C03042B02D0082B03D027E06E
:104FD000194B3B6127E0FB689B0C03F00F03174A5A
:104FE000D35C7B60FB6803F48033002B10D0114B43
:104FF0005B685B0C03F00103114AD35CBB607B6808
:105000000D4A03FB02F2BB68B2FBF3F37B6104E0E1
:105010007B680C4A02FB03F37B617B693B6102E026
:10502000054B3B6100BF3B6918461C37BD4680BC41
:10503000704700BF0010024000127A00848300080D
:105040009483000800093D0080B400AF024B1B6848
:105050001846BD4680BC70472400002080B500AFD4
:10506000FFF7F2FF0246054B5B681B0A03F00703DC
:105070000349CB5C22FA03F3184680BD00100240BE
:105080007C83000880B500AFFFF7DEFF0246054BCA
:105090005B68DB0A03F007030349CB5C22FA03F3E6
:1050A000184680BD001002407C83000880B485B0A3
:1050B00000AF78600A4B1B680A4AA2FB03235B0A15
:1050C0007A6802FB03F3FB6000BFFB685A1EFA60BC
:1050D000002BF9D100BF00BF1437BD4680BC70471C
:1050E00024000020D34D621080B582B000AF7860FC
:1050F0007B68002B01D1012341E07B6893F83D30B0
:10510000DBB2002B06D17B68002283F83C20786854
:10511000FDF728FD7B68022283F83D207B681A6832
:105120007B6804331946104600F02EFD7B6801228F
:1051300083F846207B68012283F83E207B680122A9
:1051400083F83F207B68012283F840207B6801229E
:1051500083F841207B68012283F842207B6801228A
:1051600083F843207B68012283F844207B68012276
:1051700083F845207B68012283F83D2000231846F0
:105180000837BD4680BD80B582B000AF78607B68CF
:10519000002B01D1012341E07B6893F83D30DBB265
:1051A000002B06D17B68002283F83C20786800F051
:1051B00039F87B68022283F83D207B681A687B6897
:1051C00004331946104600F0DFFC7B68012283F8A7
:1051D00046207B68012283F83E207B68012283F809
:1051E0003F207B68012283F840207B68012283F8FE
:1051F00041207B68012283F842207B68012283F8EA
:1052000043207B68012283F844207B68012283F8D5
:1052100045207B68012283F83D200023184608378B
:10522000BD4680BD80B483B000AF786000BF0C374E
:10523000BD4680BC7047000080B584B000AF786088
:1052400039603B68002B09D17B6893F83E30DBB2B4
:10525000012B14BF01230023DBB222E03B68042BA7
:1052600009D17B6893F83F30DBB2012B14BF0123D7
:105270000023DBB215E03B68082B09D17B6893F86B
:105280004030DBB2012B14BF01230023DBB208E066
:105290007B6893F84130DBB2012B14BF012300235C
:1052A000DBB2002B01D001235EE03B68002B04D170
:1052B0007B68022283F83E2013E03B68042B04D174
:1052C0007B68022283F83F200BE03B68082B04D167
:1052D0007B68022283F8402003E07B68022283F887
:1052E00041207B681B6801223968184600F0CCFE1B
:1052F0007B681B681E4A934207D17B681B685A6C07
:105300007B681B6842F400425A647B681B68184A39
:1053100093420ED07B681B68B3F1804F09D07B6845
:105320001B68144A934204D07B681B68124A93425C
:1053300011D17B681B689B6803F00703FB60FB6867
:10534000062B10D07B681B681A687B681B6842F0CC
:1053500001021A6007E07B681B681A687B681B689B
:1053600042F001021A60002318461037BD4680BD86
:10537000002C0140000400400008004080B586B0C9
:1053800000AF786039607B68002B01D1012393E086
:105390007B6893F83D30DBB2002B06D17B6800229E
:1053A00083F83C207868FDF70DFC7B68022283F8C7
:1053B0003D207B681B689B687A68126823F48043F1
:1053C00023F0070393607B681A687B6804331946EF
:1053D000104600F0D9FB7B681B689B687B617B688B
:1053E0001B689B693B617B681B681B6AFB603B68B1
:1053F0001B687A6913437B613B6923F4407323F094
:1054000003033B613B689A683B689B691B0213433B
:105410003A6913433B613B6923F4406323F00C0377
:105420003B613B6923F4704323F0F0033B613B682D
:10543000DA683B68DB691B0213433A6913433B613B
:105440003B681B691A013B681B6A1B0313433A69DB
:1054500013433B61FB6823F02203FB603B685A68FF
:105460003B685B691B011343FA681343FB607B686D
:105470001B687A699A607B681B683A699A617B68E5
:105480001B68FA681A627B68012283F846207B68F1
:10549000012283F83E207B68012283F83F207B684D
:1054A000012283F842207B68012283F843207B6835
:1054B000012283F83D20002318461837BD4680BDE1
:1054C00080B584B000AF786039607B6893F83E3077
:1054D000FB737B6893F83F30BB737B6893F8423073
:1054E0007B737B6893F843303B733B68002B10D190
:1054F000FB7B012B02D17B7B012B01D0012389E0B7
:105500007B68022283F83E207B68022283F84220D7
:1055100031E03B68042B10D1BB7B012B02D13B7BDC
:10552000012B01D0012375E07B68022283F83F2024
:105530007B68022283F843201DE0FB7B012B08D10E
:10554000BB7B012B05D17B7B012B02D13B7B012B4C
:1055500001D001235EE07B68022283F83E207B6855
:10556000022283F83F207B68022283F842207B6876
:10557000022283F843203B68002B03D03B68042BB6
:1055800010D01FE07B681B6801220021184600F044
:105590007BFD7B681B68DA687B681B6842F002024F
:1055A000DA602EE07B681B6801220421184600F0B7
:1055B0006BFD7B681B68DA687B681B6842F004023D
:1055C000DA601EE07B681B6801220021184600F0AB
:1055D0005BFD7B681B6801220421184600F054FD26
:1055E0007B681B68DA687B681B6842F00202DA603D
:1055F0007B681B68DA687B681B6842F00402DA602B
:1056000000BF7B681B681A687B681B6842F0010258
:105610001A60002318461037BD4680BD80B582B0A1
:1056200000AF78607B681B681B6903F00203022BE4
:1056300022D17B681B68DB6803F00203022B1BD1BD
:105640007B681B686FF002021A617B6801221A777F
:105650007B681B689B6903F00303002B03D0786809
:10566000FCF744F905E0786800F072FA786800F019
:1056700078FA7B6800221A777B681B681B6903F045
:105680000403042B22D17B681B68DB6803F004034E
:10569000042B1BD17B681B686FF004021A617B68C6
:1056A00002221A777B681B689B6903F44073002B06
:1056B00003D07868FCF71AF905E0786800F048FA3A
:1056C000786800F04EFA7B6800221A777B681B68C6
:1056D0001B6903F00803082B22D17B681B68DB6879
:1056E00003F00803082B1BD17B681B686FF00802CE
:1056F0001A617B6804221A777B681B68DB6903F0F8
:105700000303002B03D07868FCF7F0F805E0786815
:1057100000F01EFA786800F024FA7B6800221A77FD
:105720007B681B681B6903F01003102B22D17B6878
:105730001B68DB6803F01003102B1BD17B681B6810
:105740006FF010021A617B6808221A777B681B6869
:10575000DB6903F44073002B03D07868FCF7C6F8CC
:1057600005E0786800F0F4F9786800F0FAF97B68F1
:1057700000221A777B681B681B6903F00103012B69
:105780000ED17B681B68DB6803F00103012B07D196
:105790007B681B686FF001021A61786800F0CFF92E
:1057A0007B681B681B6903F08003802B0ED17B682C
:1057B0001B68DB6803F08003802B07D17B681B68C4
:1057C0006FF080021A61786800F03AFD7B681B6810
:1057D0001B6903F04003402B0ED17B681B68DB681C
:1057E00003F04003402B07D17B681B686FF0400239
:1057F0001A61786800F0BEF97B681B681B6903F0CA
:105800002003202B0ED17B681B68DB6803F020038C
:10581000202B07D17B681B686FF020021A61786823
:1058200000F005FD00BF0837BD4680BD80B586B0DD
:1058300000AFF860B9607A600023FB75FB6893F8ED
:105840003C30012B01D10223AEE0FB68012283F83A
:105850003C207B680C2B00F29F8001A252F823F0C1
:105860009558000899590008995900089959000855
:10587000D558000899590008995900089959000805
:1058800017590008995900089959000899590008B2
:1058900057590008FB681B68B968184600F0D6F92C
:1058A000FB681B689A69FB681B6842F008029A61F2
:1058B000FB681B689A69FB681B6822F004029A6106
:1058C000FB681B689969BB681A69FB681B680A4317
:1058D0009A6164E0FB681B68B968184600F01CFA1E
:1058E000FB681B689A69FB681B6842F400629A6156
:1058F000FB681B689A69FB681B6822F480629A61E6
:10590000FB681B689969BB681B691A02FB681B6806
:105910000A439A6143E0FB681B68B968184600F0C7
:1059200065FAFB681B68DA69FB681B6842F00802CD
:10593000DA61FB681B68DA69FB681B6822F0040205
:10594000DA61FB681B68D969BB681A69FB681B6868
:105950000A43DA6123E0FB681B68B968184600F067
:10596000AFFAFB681B68DA69FB681B6842F40062E7
:10597000DA61FB681B68DA69FB681B6822F48062E5
:10598000DA61FB681B68D969BB681B691A02FB688E
:105990001B680A43DA6102E00123FB7500BFFB6864
:1059A000002283F83C20FB7D18461837BD4680BD99
:1059B00080B584B000AF786039600023FB737B68EA
:1059C00093F83C30012B01D10223B4E07B68012223
:1059D00083F83C207B68022283F83D207B681B68AB
:1059E0009B68BB60BB6823F07703BB60BB6823F494
:1059F0007F43BB607B681B68BA689A603B681B6822
:105A0000B3F5005F3ED0B3F5005F00F28780B3F5D9
:105A1000805F00F08680B3F5805F7FD8702B1AD04E
:105A2000702B7BD8602B50D0602B77D8502B3CD07C
:105A3000502B73D8402B58D0402B6FD8302B64D0CC
:105A4000302B6BD8202B60D0202B67D8002B5CD05C
:105A5000102B5AD062E07B6818683B6899683B68F5
:105A60005A683B68DB6800F0F0FA7B681B689B684B
:105A7000BB60BB6843F07703BB607B681B68BA6898
:105A80009A604FE07B6818683B6899683B685A6881
:105A90003B68DB6800F0D9FA7B681B689A687B6812
:105AA0001B6842F480429A603CE07B6818683B685F
:105AB00059683B68DB681A4600F050FA7B681B683F
:105AC0005021184600F0A7FA2CE07B6818683B6864
:105AD00059683B68DB681A4600F06EFA7B681B6801
